:0400000007EF00F016
:0A0008000182E3ED06F089EF07F036
:1006000000434F4C4C4953494F4E204D4F444500F9
:0D0610004E4F524D414C204D4F44450000CF
:10061E0008EC07F0B1EC07F0A1EC07F0BBEC07F02B
:10062E002EEC05F0F28EF28CF294928A486A4E0EFF
:10063E00256E100E2F6E800E306E4FEC07F0030EEF
:10064E00476E5E0E466E000E496E000E4A6E000E2E
:10065E004B6E000E4C6E4E6A000E4D6E040E2CEC60
:10066E0007F02D504924496E2E504A204A6E000E36
:10067E004B204B6E000E4C204C6E4D4A4E2A4EBEF9
:10068E0052EF03F04E5009E1140E4D5CD8A052EF1C
:10069E0003F054EF03F035EF03F049C039F04AC0D0
:1006AE003AF04BC03BF04CC03CF0140E3D6E000EC9
:1006BE003E6E000E3F6E000E406E81EC05F039C0AE
:1006CE001BF03AC01CF0010ED3EC05F04F6E1BC0B0
:1006DE002DF01CC02EF02F6A306AF90E316E000E0E
:1006EE00326E000E336E000E346E4DEC06F02DC0E1
:1006FE0039F02EC03AF02FC03BF030C03CF0FF0E68
:10070E003D6E030E3E6E000E3F6E000E406E81EC8F
:10071E0005F039C01DF03AC01EF01DC039F01EC0E4
:10072E003AF0210E3B6EBFEC04F04F04D8A4A2EFBA
:10073E0003F0A4EF03F0D1EF03F04E0E2518D8A46A
:10074E00ABEF03F0ADEF03F0B1EF03F0310E256E1A
:10075E00CFEF03F0300E2564B7EF03F0B9EF03F0DF
:10076E00C4EF03F0360E2560BFEF03F0C1EF03F0C8
:10077E00C4EF03F0252ACFEF03F0360E2518D8A4C8
:10078E00CBEF03F0CDEF03F0CFEF03F0520E256E5B
:10079E0020EF04F0020E4F18D8A4D8EF03F0DAEFD2
:1007AE0003F007EF04F0520E2518D8A4E1EF03F082
:1007BE00E3EF03F0E7EF03F0360E256ECFEF03F015
:1007CE00310E2564EDEF03F0EFEF03F0FAEF03F0D7
:1007DE00370E2560F5EF03F0F7EF03F0FAEF03F0B5
:1007EE002506CFEF03F0310E2518D8A401EF04F043
:1007FE0003EF04F0CFEF03F04E0E256ECFEF03F0B4
:10080E00030E4F18D8A40EEF04F010EF04F020EFF3
:10081E0004F0010E486E476A700E466E1E6A000E98
:10082E001D6E4E0E256E010E2F6E800E306E4FEC2D
:10083E0007F04850D8B426EF04F028EF04F02DEF5F
:10084E0004F01E6A000E1D6E4E0E256E46C02DF073
:10085E0047C02EF01DC02FF025C030F0B4EC06F0CE
:10086E0026EF03F007EF00F0819A818C818E81B222
:10087E0043EF04F045EF04F048EF04F0010EBEEF35
:10088E0004F081B44DEF04F04FEF04F052EF04F09A
:10089E00040EBEEF04F081B657EF04F059EF04F0EA
:1008AE005CEF04F0070EBEEF04F081B861EF04F0C8
:1008BE0063EF04F066EF04F00A0EBEEF04F0818AD7
:1008CE00819C818E81B26EEF04F070EF04F073EFB5
:1008DE0004F0020EBEEF04F081B478EF04F07AEF6C
:1008EE0004F07DEF04F0050EBEEF04F081B682EF4A
:1008FE0004F084EF04F087EF04F0080EBEEF04F06E
:10090E0081B88CEF04F08EEF04F091EF04F00B0E33
:10091E00BEEF04F0818A818C819E819E81B29AEF16
:10092E0004F09CEF04F09FEF04F0030EBEEF04F012
:10093E0081B4A4EF04F0A6EF04F0A9EF04F0060EC4
:10094E00BEEF04F081B6AEEF04F0B0EF04F0B3EFFB
:10095E0004F0090EBEEF04F081B8B8EF04F0BAEF60
:10096E0004F0BDEF04F00C0EBEEF04F0FF0E12000B
:10097E0039C02DF03AC02EF0306A640E2F6E14EC92
:10098E0006F02D503E6E306A0A0E2F6E39C02DF0D5
:10099E003AC02EF014EC06F02DC034F02EC035F017
:1009AE00376A0A0E366E82EC06F034503D6E39C050
:1009BE0034F03AC035F0376A0A0E366E82EC06F025
:1009CE0034503C6E3E50D8A4EFEF04F0F1EF04F03B
:1009DE00F8EF04F03B50D96EDA6A200EDF6EFEEFB0
:1009EE0004F03B50D96EDA6A3E50300FDF6E3E5047
:1009FE00D8A404EF05F006EF05F017EF05F03D5013
:100A0E00D8A40CEF05F00EEF05F017EF05F03B50F4
:100A1E00D96EDA6A010ED926200EDF6E1FEF05F0B1
:100A2E003B50D96EDA6A010ED9263D50300FDF6E7B
:100A3E003B50D96EDA6A020ED9263C50300FDF6E6B
:100A4E003B50D96EDA6A030ED926DF6A1200956A18
:100A5E009450F80B946E8290C30E2F6ECD0EE82E2E
:100A6E00FED72F2EFCD70000000E2D6E330E6CEC31
:100A7E0007F01B0E2F6E9E0EE82EFED72F2EFCD7E4
:100A8E0000D0000E2D6E330E6CEC07F0A60EE82E85
:100A9E00FED700D0000E2D6E330E6CEC07F000D09A
:100AAE0000D00000000E2D6E020E6CEC07F0A60EAC
:100ABE00E82EFED700D0000E2D6E380E6CEC07F02F
:100ACE00A60EE82EFED700D0000E2D6E010E6CEC99
:100ADE0007F0040E2F6E3E0EE82EFED72F2EFCD7FB
:100AEE00000E2D6E0C0E6CEC07F0A60EE82EFED747
:100AFE0000D01200000E416E000E426E000E436ECC
:100B0E00000E446E3D503E103F104010D8B492EF90
:100B1E0005F094EF05F0CAEF05F0010E456E9EEF5D
:100B2E0005F0D8903D363E363F364036452A40AE2B
:100B3E00A3EF05F0A5EF05F098EF05F0D89041363C
:100B4E004236433644363D50395C3E503A583F505B
:100B5E003B5840503C58D8A0B7EF05F0B9EF05F020
:100B6E00C2EF05F03D50395E3E503A5A3F503B5A67
:100B7E0040503C5A4180D89040323F323E323D3256
:100B8E00452EA5EF05F041C039F042C03AF043C002
:100B9E003BF044C03CF012002E6E2E04D8A4DAEFC7
:100BAE0005F0DCEF05F006EF06F0820E2D6EDE0E80
:100BBE00E82EFED72D2EFCD73BEC04F01F6E1F281F
:100BCE00D8B4ECEF05F0EEEF05F0FAEF05F050506B
:100BDE00D8B4F4EF05F0F6EF05F0FAEF05F0506A31
:100BEE001F5013EF06F01F28D8A400EF06F002EFF7
:100BFE0006F012EF06F0010E506E12EF06F02E50B8
:100C0E00D8A40CEF06F00EEF06F012EF06F03BEC58
:100C1E0004F013EF06F0FF0E1200326A000E316E72
:100C2E002F503010D8B41EEF06F020EF06F048EF2C
:100C3E0006F0010E336E28EF06F0D8902F363036C0
:100C4E00332A30AE2DEF06F02FEF06F024EF06F02C
:100C5E00D890313632362F502D5C30502E58D8A0C9
:100C6E003BEF06F03DEF06F042EF06F02F502D5E03
:100C7E0030502E5A3180D89030322F32332E2FEF03
:100C8E0006F031C02DF032C02EF01200000E356E7F
:100C9E00000E366E000E376E000E386E2DA05AEF17
:100CAE0006F05CEF06F064EF06F031503526325058
:100CBE0036223350372234503822D89031363236DD
:100CCE0033363436D89030322F322E322D322D50DC
:100CDE002E102F103010D8A477EF06F079EF06F013
:100CEE0055EF06F035C02DF036C02EF037C02FF080
:100CFE0038C030F0120036503710D8B489EF06F0F5
:100D0E008BEF06F0AFEF06F0010E386E93EF06F0A4
:100D1E00D89036363736382A37AE98EF06F09AEF37
:100D2E0006F08FEF06F03650345C37503558D8A0A9
:100D3E00A3EF06F0A5EF06F0A9EF06F03650345EED
:100D4E003750355AD89037323632382E9AEF06F061
:100D5E0034C034F035C035F012000F01436B446BD4
:100D6E002DC031F02EC032F0D89032323132D890C0
:100D7E0032323132D890323231323150416F2D38D9
:100D8E00E846E00B426F040E456F466B476B2FC073
:100D9E0048FF30C049FF450E4A6F460E4B6F470E57
:100DAE004C6F480E4D6F40B7DFEF06F0E1EF06F0E7
:100DBE00DAEF06F0408712000600F2A4E9EF06F023
:100DCE00EBEF06F006EF07F0080ED624D66E000EF7
:100DDE00D720D76E19502B6E1A502C6E194A1A2A1C
:100DEE002C5009E1640E2B5CD8A000EF07F002EF47
:100DFE0007F005EF07F01A6A000E196EF2940192D1
:100E0E001100939493861F0E6F166F8E800E6E18C0
:100E1E00D8A414EF07F016EF07F00DEF07F0776A7E
:100E2E00E10E706E1B0E716E030E726E010E0D01D1
:100E3E00D46F0F01026B036B6B0E006FC00E016F50
:100E4E001F0E6F166F50606A1200336E33C02FF094
:100E5E00D8902F36D8902F36C250C30B2F10C26E9B
:100E6E00C282C2B23DEF07F03FEF07F038EF07F056
:100E7E00C350C4CF2FF0306A2FC030F02F6A2F101E
:100E8E00316E3050326E31C02DF032C02EF0120065
:100E9E00000E2D6E30506CEC07F05FEF07F0010E78
:100EAE002D6E2FC0F6FF0800F5506CEC07F02F2AC0
:100EBE002FC0F6FF0800F5500009D8A469EF07F01F
:100ECE006BEF07F056EF07F012002E6E2DB072EF9B
:100EDE0007F075EF07F0828276EF07F082922EC050
:100EEE0083FF82848294958E828082928284829401
:100EFE0083BE84EF07F086EF07F07DEF07F0829058
:100F0E00959E1200880EF66E0F0EF76E000EF86E9E
:100F1E000900F5CF50F000EE02F0290EEE6AE80659
:100F2E00FDE101900192000EF86E060EF76E0001C3
:100F3E000FEF03F0C08EC09AC088C096C090C082DA
:100F4E00C094C292C19AC1980B0EC16EC46AC36A94
:100F5E00C2801200D58CD59AD58ED586D76A060E4C
:100F6E00D66EF294F28A12000F0EC16E1E0E936EA2
:0B0F7E00F19E8150E009816E1200011D
:00000001FF
