:0400000007EF00F016
:0A000800018203ED05F0F2EF06F0AF
:100600000053504420472052504D20205420204970
:03061000440000A3
:10061400B5EC06F033EC07F00EEC07F02AEC07F02B
:100624005FEC05F0F28EF28C9E92928A010E3D6E82
:100634003D50D8A4060E3E6E800E3F6E25EC06F0AB
:100644008DEC06F00009D8B42AEF03F02CEF03F088
:1006540022EF03F005C04EF0050E4F6ED8904E32D7
:100664004F2E30EF03F04E5004C050F0516AD89032
:1006740050365136D89050365136D890503651367F
:100684005010566E5150576E5E0E561807E1030E09
:100694005718D8A450EF03F052EF03F069EF03F0BA
:1006A40009C047F0486A310E496E9CEC04F00AC058
:1006B40018F0310E3D6E3E6AC00E3F6E25EC06F01A
:1006C400C40E3D6E18501EEC07F022EF03F0300EFE
:1006D40056185710D8A471EF03F073EF03F08DEFA1
:1006E40003F0536A000E526E07504E6E0850526E5D
:1006F4004EC053F052C047F053C048F0270E496E25
:10070400EFEC03F0270E3D6E3E6AC60E3F6E25ECFD
:1007140006F022EF03F0400E56185710D8A495EFB8
:1007240003F097EF03F0ABEF03F008C054F0556A01
:1007340054C047F055C048F01D0E496EB2EC05F0A8
:100744001D0E3D6E3E6ACB0E3F6E25EC06F022EF89
:1007540003F0500E56185710D8A4B3EF03F0B5EFBA
:1007640003F022EF03F008C01BF01B04D8A4BDEF74
:1007740003F0BFEF03F0C6EF03F0CE0E3D6E4C0E58
:100784001EEC07F022EF03F0020E1B18D8A4CDEFE5
:1007940003F0CFEF03F0D6EF03F0CE0E3D6E520E12
:1007A4001EEC07F022EF03F0030E1B18D8A4DDEFB4
:1007B40003F0DFEF03F0E6EF03F0CE0E3D6E480EDC
:1007C4001EEC07F022EF03F0CE0E3D6E200E1EEC61
:1007D40007F022EF03F007EF00F047C03BF048C0FA
:1007E4003CF0030E3E6EE80E3D6EECEC05F03B5023
:1007F4004D6E3E6A640E3D6E47C03BF048C03CF00F
:10080400ECEC05F03BC042F03CC043F0456A0A0EF4
:10081400446E5BEC06F042504C6E3E6A0A0E3D6E2E
:1008240047C03BF048C03CF0ECEC05F03BC042F064
:100834003CC043F0456A0A0E446E5BEC06F042503D
:100844004B6E47C042F048C043F0456A0A0E446EFE
:100854005BEC06F042504A6E4D50D8A434EF04F0DD
:1008640036EF04F03DEF04F04950D96EDA6A200EF9
:10087400DF6E43EF04F04950D96EDA6A4D50300F01
:10088400DF6E4D50D8A449EF04F04BEF04F05CEF59
:1008940004F04C50D8A451EF04F053EF04F05CEF93
:1008A40004F04950D96EDA6A010ED926200EDF6EA3
:1008B40064EF04F04950D96EDA6A010ED9264C501F
:1008C400300FDF6E4D50D8A46AEF04F06CEF04F0E3
:1008D40085EF04F04C50D8A472EF04F074EF04F0E8
:1008E40085EF04F04B50D8A47AEF04F07CEF04F0C9
:1008F40085EF04F04950D96EDA6A020ED926200E2B
:10090400DF6E8DEF04F04950D96EDA6A020ED926F3
:100914004B50300FDF6E4950D96EDA6A030ED92678
:100924004A50300FDF6E4950D96EDA6A040ED92668
:10093400DF6A1200485009E1640E475CD8A0A5EFB5
:1009440004F0A7EF04F0B8EF04F04950D96EDA6A66
:1009540047C03BF048C03CF03E6A640E3D6EECEC90
:1009640005F03B50300FDF6EBDEF04F04950D96EF7
:10097400DA6A200EDF6E485009E10A0E475CD8A0FF
:10098400C6EF04F0C8EF04F0E4EF04F04950D96E68
:10099400DA6A010ED9263E6A0A0E3D6E47C03BF064
:1009A40048C03CF0ECEC05F03BC042F03CC043F0E6
:1009B400456A0A0E446E5BEC06F04250300FDF6E5F
:1009C400EBEF04F04950D96EDA6A010ED926200EF5
:1009D400DF6E4950D96EDA6A020ED92647C042F05A
:1009E40048C043F0456A0A0E446E5BEC06F0425080
:1009F400300FDF6E4950D96EDA6A030ED926DF6AEA
:100A0400120006009EA209EF05F00BEF05F05DEF62
:100A140005F09E920F4A102A100E0F1807E1270EB8
:100A24001018D8A418EF05F01AEF05F05DEF05F0E3
:100A3400106A000E0F6E1B50D8A423EF05F025EFAB
:100A440005F029EF05F0819081985DEF05F01C50C9
:100A5400D8A42FEF05F031EF05F05AEF05F0010EA1
:100A64001C6E1B04D8B439EF05F03BEF05F044EFDE
:100A740005F0030E1B18D8A442EF05F044EF05F06F
:100A840045EF05F08180020E1B18D8B44CEF05F039
:100A94004EEF05F057EF05F0030E1B18D8A455EFE1
:100AA40005F057EF05F05DEF05F081885DEF05F087
:100AB4001C6A8190819801921100956A9450F80BF8
:100AC400946E8290C30E3D6ECD0EE82EFED73D2E61
:100AD400FCD70000000E3B6E330ED5EC06F01B0E67
:100AE4003D6E9E0EE82EFED73D2EFCD700D0000EA4
:100AF4003B6E330ED5EC06F0A60EE82EFED700D0E2
:100B0400000E3B6E330ED5EC06F000D000D0000092
:100B1400000E3B6E020ED5EC06F0A60EE82EFED7B4
:100B240000D0000E3B6E380ED5EC06F0A60EE82E73
:100B3400FED700D0000E3B6E010ED5EC06F0040E7D
:100B44003D6E3E0EE82EFED73D2EFCD7000E3B6ECA
:100B54000C0ED5EC06F0A60EE82EFED700D012003F
:100B640047C03BF048C03CF03E6A0A0E3D6EECECD8
:100B740005F03B504B6E47C042F048C043F0456A15
:100B84000A0E446E5BEC06F042504A6E4B50D8A4F9
:100B9400CEEF05F0D0EF05F0D7EF05F04950D96E50
:100BA400DA6A200EDF6EDDEF05F04950D96EDA6A9D
:100BB4004B50300FDF6E4950D96EDA6A010ED926D8
:100BC4004A50300FDF6E4950D96EDA6A020ED926C8
:100BD400DF6A1200406A000E3F6E3D503E10D8B4EA
:100BE400F6EF05F0F8EF05F020EF06F0010E416E88
:100BF40000EF06F0D8903D363E36412A3EAE05EF72
:100C040006F007EF06F0FCEF05F0D8903F364036CB
:100C14003D503B5C3E503C58D8A013EF06F015EF16
:100C240006F01AEF06F03D503B5E3E503C5A3F80C2
:100C3400D8903E323D32412E07EF06F03FC03BF0E4
:100C440040C03CF01200000E3B6E3F50D5EC06F065
:100C540042EF06F0010E3B6E3DC0F6FF3EC0F7FFCB
:100C6400F86A050EF76403D00800F55005D0F6CFF6
:100C7400E9FFF7CFEAFFEF50D5EC06F03D4A3E2AF4
:100C84003DC0F6FF3EC0F7FFF86A050EF76403D0D7
:100C94000800F55005D0F6CFE9FFF7CFEAFFEF5093
:100CA4000009D8A458EF06F05AEF06F02CEF06F02E
:100CB400120044504510D8B462EF06F064EF06F019
:100CC40088EF06F0010E466E6CEF06F0D8904436BD
:100CD4004536462A45AE71EF06F073EF06F068EF2D
:100CE40006F04450425C45504358D8A07CEF06F0CF
:100CF4007EEF06F082EF06F04450425E4550435AC0
:100D0400D89045324432462E73EF06F042C042F08A
:100D140043C043F0120060AE92EF06F094EF06F089
:100D2400B3EF06F063CF02F064CF03F061CF04F0B9
:100D340062CF05F065CF06F066CF07F067CF08F005
:100D440068CF09F069CF0AF06ACF0BF06BCF0CF0D3
:100D54006CCF0DF06DCF0EF0609EA490010EB4EF39
:100D640006F0000E1200939493861F0E6F166F8E7A
:100D7400800E6E18D8A4C1EF06F0C3EF06F0BAEFE8
:100D840006F0776AE10E706E1B0E716E030E726EC2
:100D94000F01026B036B006B016B1F0E6F166F501C
:100DA400600E606E12003C6E3BB0DBEF06F0DEEFCF
:100DB40006F08282DFEF06F082923CC083FF8284D9
:100DC4008294958E828082928284829483BEEDEF97
:100DD40006F0EFEF06F0E6EF06F08290959E120023
:100DE400720EF66E0E0EF76E000EF86E0900F5CF59
:100DF40058F000EE60F00A0EEE6AE806FDE100EE3F
:100E040002F0390EEE6AE806FDE101900192000E4F
:100E1400F86E00010AEF03F0C08EC09AC088C09635
:100E2400C090C082C094C292C19AC1980B0EC16E88
:100E3400C46AC36AC28012003E6E000E3B6E3D500F
:100E4400D5EC06F0010E3B6E3E50D5EC06F01200D8
:100E54000F0EC16E0E0E936EF19E8150E009816EED
:0F0E64001200CA849D829E92F90ECB6E1200017D
:00000001FF
