:04000000FEEF17F008
:101DB4000F0EC16E0E0E936EF19E8150E009816E7E
:101DC4001200EEEC0EF0DAEC0EF097EC0FF0D8EC1B
:101DD40010F0F28EF28C1200C08EC09AC088C096A9
:101DE400C090C082C094C292C19AC198C46AC36AA6
:101DF400C2801200000EF66E300EF76E000EF86E02
:101E04000900F5CF7DF000EE60F0140EEE6AE806EE
:101E1400FDE15F6A000EF86E000183EF12F0026EBE
:101E240001B017EF0FF01AEF0FF082821BEF0FF0E3
:101E3400829202C083FF82848294958E82808292F1
:101E44008284829483BE29EF0FF02BEF0FF022EFF0
:101E54000FF08290959E1200000E016E055011EC59
:101E64000FF041EF0FF0010E016E03C0F6FF04C046
:101E7400F7FF0800F55011EC0FF0034A042A03C0E1
:101E8400F6FF04C0F7FF0800F5500009D8A44DEF91
:101E94000FF04FEF0FF035EF0FF01200076E07C091
:101EA40003F0D8900336D8900336C250C30B031006
:101EB400C26EC282C2B261EF0FF063EF0FF05CEF4B
:101EC4000FF0C350C4CF03F0046A03C004F0036AE4
:101ED4000310056E0450066E05C001F006C002F042
:101EE40012000F01436B446B01C005F002C006F001
:101EF400D89006320532D89006320532D890063290
:101F040005320550416F0138E846E00B426F020E7E
:101F1400456F0450466F03C047FF486B496B4A6BDB
:101F24004B6B4C6B4D6B40871200939493861F0E42
:101F34006F166F8E800E6E18D8A4A3EF0FF0A5EF66
:101F44000FF09CEF0FF0776AE10E706E1B0E716E4E
:101F5400030E726E010E0D01D46F0E0E0F01006F91
:101F6400016B1869E00E196F1A6B1B6B1F0E6F164D
:101F74006F50606A120060AEC2EF0FF0C4EF0FF052
:101F8400E3EF0FF063CF60F064CF61F061CF62F0F4
:101F940062CF63F065CF64F066CF65F067CF66F01B
:101FA40068CF67F069CF68F06ACF69F06BCF6AF0E9
:101FB4006CCF6BF06DCF6CF0609EA490010EE4EFDB
:101FC4000FF0000E1200819A818C818E81B2EDEFA8
:101FD4000FF0EFEF0FF0F2EF0FF0010E0EEF10F035
:101FE400818A819C818E81B2FAEF0FF0FCEF0FF0B1
:101FF400FFEF0FF0020E0EEF10F0818A818C819EAC
:10200400819E81B208EF10F00AEF10F00DEF10F08E
:10201400030E0EEF10F0FF0E1200016E0104D8A49F
:1020240016EF10F018EF10F03CEF10F0E5EC0FF0A5
:1020340000016F6F6F29D8B422EF10F024EF10F075
:1020440030EF10F07D51D8B42AEF10F02CEF10F0DF
:1020540030EF10F07D6B6F5149EF10F06F29D8A469
:1020640036EF10F038EF10F048EF10F0010E7D6FEE
:1020740048EF10F00150D8A442EF10F044EF10F0F4
:1020840048EF10F0E5EC0FF049EF10F0FF0E1200EE
:10209400060E50EC0FF001C05AF002C05BF0E30EE4
:1020A400396E360E3A6EFA0E3B6E3E0E3C6E5AC0D8
:1020B4000EF05BC00FF0106A116A000E3BEC13F0D7
:1020C4000EC035F00FC036F010C037F011C038F034
:1020D400DCEC15F035C04EF036C04FF037C050F090
:1020E40038C051F000EC12F04E505C6E620E5C642D
:1020F4007EEF10F080EF10F082EF10F0630E5C6E54
:102104005CC058F0596A1200000E096E000E0A6E87
:10211400000E0B6E000E0C6E055006100710081012
:10212400D8B497EF10F099EF10F0CFEF10F0010E44
:102134000D6EA3EF10F0D890053606360736083634
:102144000D2A08AEA8EF10F0AAEF10F09DEF10F0E2
:10215400D89009360A360B360C360550015C065009
:1021640002580750035808500458D8A0BCEF10F088
:10217400BEEF10F0C7EF10F00550015E0650025A92
:102184000750035A0850045A0980D890083207327D
:10219400063205320D2EAAEF10F009C001F00AC074
:1021A40002F00BC003F00CC004F01200956A9450C6
:1021B400F80B946E8290C30E036ECD0EE82EFED7FC
:1021C400032EFCD70000000E016E330E11EC0FF04D
:1021D4001B0E036E9E0EE82EFED7032EFCD700D0F6
:1021E400000E016E330E11EC0FF0A60EE82EFED792
:1021F40000D0000E016E330E11EC0FF000D000D0B1
:102204000000000E016E020E11EC0FF0A60EE82E77
:10221400FED700D0000E016E380E11EC0FF0A60EA2
:10222400E82EFED700D0000E016E010E11EC0FF067
:10223400040E036E3E0EE82EFED7032EFCD7000ECE
:10224400016E0C0E11EC0FF0A60EE82EFED700D096
:102254001200010E0FEC10F0026E70C05FF0030E5E
:102264005F18D8A438EF11F03AEF11F047EF11F0EE
:10227400030E0218D8B441EF11F043EF11F047EF09
:1022840011F00001705192EF11F00204D8A44DEF47
:1022940011F04FEF11F060EF11F05F04D8A455EF87
:1022A40011F057EF11F05BEF11F00001706B43EF89
:1022B40011F0010E0001706F43EF11F0020E0218CD
:1022C400D8A467EF11F069EF11F079EF11F0020E65
:1022D4005F18D8A470EF11F072EF11F074EF11F0E1
:1022E40057EF11F0020E0001706F43EF11F0030E6F
:1022F4000218D8A480EF11F082EF11F043EF11F02F
:10230400030E5F18D8A489EF11F08BEF11F08DEF55
:1023140011F057EF11F0030E0001706F43EF11F04D
:102324001200000E5A6E000E5B6E000E5C6E000E04
:102334005D6E5E6A040E50EC0FF001505A26025096
:102344005B22000E5C22000E5D225E2A310E5E646A
:10235400AEEF11F0B0EF11F09CEF11F0000E396EFA
:102364003C0E3A6E1C0E3B6E460E3C6E000E206E0A
:10237400C00E216E7F0E226E440E236E320E056E49
:10238400000E066E000E076E000E086E5AC001F0B5
:102394005BC002F05CC003F05DC004F086EC10F09A
:1023A40001C00EF002C00FF003C010F004C011F021
:1023B400000E3BEC13F00EC01CF00FC01DF010C05B
:1023C4001EF011C01FF015EC14F01CC035F01DC038
:1023D40036F01EC037F01FC038F0DCEC15F035C005
:1023E4004EF036C04FF037C050F038C051F000EC1A
:1023F40012F04EC058F04FC059F01200503451340E
:10240400576E5750D8A409EF12F00BEF12F015EFE6
:1024140012F0000E4E6E000E4F6E000E506E000E47
:10242400516E82EF12F04EC052F04FC053F050C0C4
:1024340054F051C055F0200E25EF12F0D8905532CB
:10244400543253325232E82E20EF12F05250566E6C
:10245400508EFF0E4E16FF0E4F16FF0E5016000E36
:102464005116960E575E57BE3CEF12F03AEF12F03B
:1024740052EF12F05750800A970FD8B044EF12F081
:1024840046EF12F048EF12F00BEF12F0D8905132F1
:1024940050324F324E32573E48EF12F06AEF12F08C
:1024A4001F0E576458EF12F05AEF12F062EF12F059
:1024B4000BEF12F0D8904E364F3650365136570641
:1024C4005750D8A468EF12F06AEF12F05CEF12F0E4
:1024D4005650D8B470EF12F072EF12F07AEF12F097
:1024E400511E501E4F1E4E6C000E4F225022512280
:1024F4004EC04EF04FC04FF050C050F051C051F09C
:102504001200E3EC0EF0EE0E036E2F0E046E800E3E
:10251400056E2EEC0FF0BDEC0FF00009D8B495EF6A
:1025240012F097EF12F0C3EF12F063C074F0050ECF
:102534000001756FD8907433752F9CEF12F07451AD
:1025440062C076F0776BD89076377737D890763745
:102554007737D890763777377611786F7751796FE8
:10256400700E78197911D8A4BAEF12F0BCEF12F0FA
:10257400C3EF12F0010E716F000E016E010E11EC2B
:102584000FF000017151D8A4CAEF12F0CCEF12F091
:10259400D8EF12F093EC11F058C07AF059C07BF0E8
:1025A4002BEC11F00001736FE6EF12F0DF0E036EF7
:1025B4002F0E046E800E056E2EEC0FF000017B6B67
:1025C400000E7A6F030E736F4AEC10F0585000013E
:1025D4007C6F0F0140B7F1EF12F0F3EF12F0EBEF65
:1025E40012F0026A300E016E7AC003F07BC004F070
:1025F40073EC0FF0410E0001746FEE0EE82EFED75F
:10260400742FFCD700000F0140B70BEF13F00DEF50
:1026140013F005EF13F0026A400E016E7CC003F064
:10262400046A73EC0FF0410E0001746FEE0EE82E95
:10263400FED7742FFCD700000F0140B724EF13F02E
:1026440026EF13F01EEF13F0026A500E016E73C0F2
:1026540003F0046A73EC0FF0410E0001746FEE0E88
:10266400E82EFED7742FFCD700008DEF12F0FEEF9A
:1026740017F0166E1650D8B442EF13F044EF13F06F
:1026840066EF13F011BE4BEF13F049EF13F066EF52
:1026940013F00EC012F00FC013F010C014F011C0EC
:1026A40015F0121E131E141E151E122A000E1322DC
:1026B4001422152212C018F013C019F014C01AF015
:1026C40015C01BF06EEF13F00EC018F00FC019F018
:1026D40010C01AF011C01BF00E500F101010111082
:1026E400D8A477EF13F079EF13F083EF13F0000E13
:1026F4000E6E000E0F6E000E106E000E116E14EFB3
:1027040014F0960E176E8DEF13F0172AD8901B3223
:102714001A3219321832000E1814126E000E1914DF
:10272400136E000E1A14146EFE0E1B14156E125046
:10273400131014101510D8A4A2EF13F0A4EF13F083
:1027440087EF13F0B2EF13F0172A010E1826000ECC
:1027540019221A221B22D8901B321A32193218322B
:10276400000E1814126E000E1914136E000E1A14B3
:10277400146EFF0E1B14156E125013101410151046
:10278400D8A4C7EF13F0C9EF13F0A6EF13F0D1EFFD
:1027940013F01706D890183619361A361B361ABE97
:1027A400D6EF13F0D8EF13F0E0EF13F0020E17603A
:1027B400DEEF13F0E0EF13F0CBEF13F017B0E5EF1B
:1027C40013F0E7EF13F0E8EF13F01A9ED8901732E6
:1027D40017C012F0136A146A156A12C015F0146A4D
:1027E400136A126A125018121350191214501A1242
:1027F40015501B121650D8B402EF14F004EF14F065
:102804000CEF14F011BE0BEF14F009EF14F00CEF01
:1028140014F01B8E18C00EF019C00FF01AC010F07F
:102824001BC011F012001F50800B2C6E1F501F2470
:10283400336E1EAE20EF14F022EF14F023EF14F0E9
:1028440033803350D8B429EF14F02BEF14F03FEF5A
:1028540014F03328D8A431EF14F033EF14F03BEF25
:1028640014F0000E1C6E000E1D6E000E1E6E000E87
:102874001F6E1E8E1F6A47EF14F0000E1C6E000EB2
:102884001D6E000E1E6E000E1F6E2350800B2C1A40
:1028940023502324346E22AE52EF14F054EF14F07C
:1028A40055EF14F034803450D8B45BEF14F05DEF7E
:1028B40014F071EF14F03428D8A463EF14F065EF2A
:1028C40014F06DEF14F0000E206E000E216E000E59
:1028D400226E000E236E228E236A79EF14F0000E0E
:1028E400206E000E216E000E226E000E236E20500C
:1028F400211022102310D8A482EF14F084EF14F0D6
:102904009CEF14F0000E1C6E000E1D6E000E1E6E69
:10291400000E1F6E800E1E127F0E1F122C501F12EF
:102924001CC01CF01DC01DF01EC01EF01FC01FF0F7
:10293400DBEF15F03350D8A4A2EF14F0A4EF14F099
:10294400AEEF14F0000E1C6E000E1D6E000E1E6E17
:10295400000E1F6EDBEF15F0345033C024F0256AEF
:10296400245E000E255A7F0E24242D6E000E252091
:102974002E6E1CC028F01DC029F01EC02AF01FC0F6
:102984002BF0000E1C6E000E1D6E000E1E6E000E4F
:102994001F6E000E2F6E000E306E000E316E000E94
:1029A400326E346A0EEF15F03450D8B4DCEF14F004
:1029B400DEEF14F0F5EF14F0D890283629362A36D5
:1029C4002B36D8901C361D361E361F3632AEEDEF30
:1029D40014F0EFEF14F0F0EF14F01C80D8902F36C1
:1029E4003036313632362050285C21502958225056
:1029F4002A5823502B58D8A002EF15F004EF15F0F5
:102A04000DEF15F0328C2050285E2150295A2250A7
:102A14002A5A23502B5A342A190E346414EF15F011
:102A240016EF15F0D6EF14F0285029102A102B10A9
:102A3400D8B41FEF15F021EF15F039EF15F02F8002
:102A440039EF15F0D8901C361D361E361F3632AEBF
:102A54002EEF15F030EF15F031EF15F01C80D89003
:102A64002F363036313632362D06D8A02E061EAE1D
:102A74003EEF15F040EF15F024EF15F0346A32AE56
:102A840046EF15F048EF15F06CEF15F0FF0E2F141C
:102A9400246EFF0E3014256EFF0E3114266E7F0E49
:102AA4003214276E2450251026102710D8B45DEF59
:102AB40015F05FEF15F063EF15F0010E346E6CEF57
:102AC40015F01CA068EF15F06AEF15F06CEF15F027
:102AD4005FEF15F03450D8B472EF15F074EF15F0C1
:102AE40098EF15F0010E1C26000E1D221E221F2237
:102AF4001FA07FEF15F081EF15F098EF15F01CC0C3
:102B040024F01DC025F01EC026F01FC027F0273476
:102B1400273226322532243224C01CF025C01DF071
:102B240026C01EF027C01FF02D4A2E2A2EBEA3EF6A
:102B340015F02E5008E12D28D8A0A3EF15F0A5EF2D
:102B440015F0B0EF15F0000E2E6E2D68000E1C6E01
:102B5400000E1D6E000E1E6E000E1F6E2EBEBDEF0B
:102B640015F02E5006E12D04D8B0BBEF15F0BDEFE3
:102B740015F0C9EF15F02E6A000E2D6E000E1C6EB6
:102B8400000E1D6E000E1E6E000E1F6E2C6A2DC0F0
:102B940033F033A0D0EF15F0D2EF15F0D5EF15F0E8
:102BA4001E8ED6EF15F01E9ED89033301F6E90EF18
:102BB40014F012003850800B416E38503824476EA0
:102BC40037AEE7EF15F0E9EF15F0EAEF15F04780BF
:102BD4004750D8B4F0EF15F0F2EF15F005EF16F00A
:102BE4004728D8A4F8EF15F0FAEF15F002EF16F025
:102BF400000E356E000E366E000E376E000E386E07
:102C0400378E0DEF16F0000E356E000E366E000E88
:102C1400376E000E386E3C50800B411A3C503C24F9
:102C2400466E3BAE18EF16F01AEF16F01BEF16F0D7
:102C340046804650D8B421EF16F023EF16F036EF55
:102C440016F04628D8A429EF16F02BEF16F033EF30
:102C540016F0000E396E000E3A6E000E3B6E000E3A
:102C64003C6E3B8E3EEF16F0000E396E000E3A6E4F
:102C7400000E3B6E000E3C6E4650D8B444EF16F086
:102C840046EF16F04EEF16F04750D8A44CEF16F06E
:102C94004EEF16F058EF16F0000E356E000E366E3D
:102CA400000E376E000E386EEEEF17F03B50350213
:102CB400F3CF4CF0F4CF4DF04C50426E436A446A6B
:102CC400456A4D50486E496A4A6A4B6A3A50360220
:102CD400F3CF4CF0F4CF4DF04C504226000E43227B
:102CE400442245224D504826000E49224A224B22B6
:102CF40039503702F3CF4CF0F4CF4DF04C5042260C
:102D0400000E4322442245224D504826000E4922FB
:102D14004A224B2244C045F043C044F042C043F031
:102D2400426A39503602F3CF4CF0F4CF4DF04C5098
:102D340042264D504322000E4422000E45223A50B2
:102D44003502F3CF4CF0F4CF4DF04C5042264D50A9
:102D54004322000E4422000E452244C045F043C0E5
:102D640044F042C043F0426A39503502F3CF4CF08C
:102D7400F4CF4DF04C5042264D504322000E4422D5
:102D8400000E45223B503602F3CF4CF0F4CF4DF009
:102D94004C5048264D504922000E4A22000E4B2228
:102DA4003A503702F3CF4CF0F4CF4DF04C50482654
:102DB4004D504922000E4A22000E4B223B5037024E
:102DC400F3CF4CF0F4CF4DF04C503D6E4D503E6E71
:102DD4003F6A406A3FC040F03EC03FF03DC03EF015
:102DE4003D6A3D5048263E5049223F504A224050B9
:102DF4004B2242C03DF043C03EF044C03FF045C0CA
:102E040040F0190E0BEF17F0D89040323F323E32AB
:102E14003D32E82E06EF17F03D5048263E50492239
:102E24003F504A2240504B2244C045F043C044F036
:102E340042C043F0426A465047C03DF03E6A3D26D8
:102E4400000E3E22820E3D244C6EFF0E3E204D6E3F
:102E540041EF17F0D890483649364A364B3645AEDE
:102E640036EF17F038EF17F039EF17F04880D890A5
:102E740042364336443645364C06D8A04D064AAE53
:102E840046EF17F048EF17F02CEF17F0466A45AEFF
:102E94004EEF17F050EF17F074EF17F0FF0E4214D7
:102EA4003D6EFF0E43143E6EFF0E44143F6E7F0EC4
:102EB4004514406E3D503E103F104010D8B465EFAD
:102EC40017F067EF17F06BEF17F0010E466E74EF13
:102ED40017F048A070EF17F072EF17F074EF17F0C7
:102EE40067EF17F04650D8B47AEF17F07CEF17F07D
:102EF400A0EF17F0010E4826000E49224A224B2269
:102F04004BA087EF17F089EF17F0A0EF17F048C038
:102F14003DF049C03EF04AC03FF04BC040F0403461
:102F240040323F323E323D323DC048F03EC049F06F
:102F34003FC04AF040C04BF04C4A4D2A4DBEABEF67
:102F440017F04D5008E14C28D8A0ABEF17F0ADEFC7
:102F540017F0B7EF17F0000E486E000E496E800EA2
:102F64004A6E7F0E4B6EE4EF17F04DBEC4EF17F0C0
:102F74004D5006E14C04D8B0C2EF17F0C4EF17F07F
:102F8400CFEF17F0000E486E000E496E000E4A6E29
:102F9400000E4B6E416AE4EF17F04CC047F0FF0E91
:102FA4004816FF0E49167F0E4A16000E4B1647A010
:102FB400DEEF17F0E0EF17F0E1EF17F04A8ED8904C
:102FC40047304B6E41504B1248C035F049C036F083
:102FD4004AC037F04BC038F0120000434F4C4C4904
:102FE40053494F4E204D4F4445004E4F524D414C96
:072FF400204D4F4445000091
:052FFC00FCEF0EF001E6
:020000040020DA
:08000000FFFFFFFFFFFFFFFF00
:020000040030CA
:0E000000FF071F1FFF8285FF0FC00FE00F409C
:00000001FF
